{
  "_format": "hh-sol-artifact-1",
  "contractName": "Lottery",
  "sourceName": "contracts/Lottery.sol",
  "abi": [
    {
      "inputs": [
        {
          "internalType": "address",
          "name": "_pumpMeBase",
          "type": "address"
        }
      ],
      "stateMutability": "nonpayable",
      "type": "constructor"
    },
    {
      "anonymous": false,
      "inputs": [
        {
          "indexed": false,
          "internalType": "uint8",
          "name": "version",
          "type": "uint8"
        }
      ],
      "name": "Initialized",
      "type": "event"
    },
    {
      "anonymous": false,
      "inputs": [
        {
          "indexed": false,
          "internalType": "address",
          "name": "owner",
          "type": "address"
        }
      ],
      "name": "LotteryBought",
      "type": "event"
    },
    {
      "anonymous": false,
      "inputs": [
        {
          "indexed": false,
          "internalType": "address[]",
          "name": "owners",
          "type": "address[]"
        },
        {
          "indexed": false,
          "internalType": "uint256",
          "name": "amount",
          "type": "uint256"
        }
      ],
      "name": "Winner",
      "type": "event"
    },
    {
      "inputs": [
        {
          "internalType": "uint256",
          "name": "_poolId",
          "type": "uint256"
        }
      ],
      "name": "bet",
      "outputs": [],
      "stateMutability": "nonpayable",
      "type": "function"
    },
    {
      "inputs": [
        {
          "internalType": "uint256",
          "name": "_participantLimit",
          "type": "uint256"
        }
      ],
      "name": "createPool",
      "outputs": [],
      "stateMutability": "nonpayable",
      "type": "function"
    },
    {
      "inputs": [],
      "name": "currentState",
      "outputs": [
        {
          "internalType": "enum Lottery.LotteryState",
          "name": "",
          "type": "uint8"
        }
      ],
      "stateMutability": "view",
      "type": "function"
    },
    {
      "inputs": [
        {
          "internalType": "uint256",
          "name": "_nonce",
          "type": "uint256"
        }
      ],
      "name": "drawLottery",
      "outputs": [],
      "stateMutability": "nonpayable",
      "type": "function"
    },
    {
      "inputs": [
        {
          "internalType": "uint256",
          "name": "_poolId",
          "type": "uint256"
        },
        {
          "internalType": "uint256",
          "name": "_participant",
          "type": "uint256"
        }
      ],
      "name": "getPoolParticipant",
      "outputs": [
        {
          "internalType": "address",
          "name": "",
          "type": "address"
        }
      ],
      "stateMutability": "view",
      "type": "function"
    },
    {
      "inputs": [
        {
          "internalType": "uint256",
          "name": "_createdAt",
          "type": "uint256"
        },
        {
          "internalType": "uint256",
          "name": "_endingAt",
          "type": "uint256"
        },
        {
          "internalType": "uint256",
          "name": "_deposit",
          "type": "uint256"
        },
        {
          "internalType": "uint256",
          "name": "_participantLimit",
          "type": "uint256"
        }
      ],
      "name": "initialize",
      "outputs": [],
      "stateMutability": "nonpayable",
      "type": "function"
    },
    {
      "inputs": [],
      "name": "lastPoolCreated",
      "outputs": [
        {
          "internalType": "uint256",
          "name": "",
          "type": "uint256"
        }
      ],
      "stateMutability": "view",
      "type": "function"
    },
    {
      "inputs": [],
      "name": "lotteryData",
      "outputs": [
        {
          "internalType": "uint256",
          "name": "createdAt",
          "type": "uint256"
        },
        {
          "internalType": "uint256",
          "name": "endingAt",
          "type": "uint256"
        },
        {
          "internalType": "uint256",
          "name": "deposit",
          "type": "uint256"
        },
        {
          "internalType": "uint256",
          "name": "totalDeposit",
          "type": "uint256"
        },
        {
          "internalType": "uint256",
          "name": "participantCount",
          "type": "uint256"
        },
        {
          "internalType": "uint256",
          "name": "participantLimit",
          "type": "uint256"
        }
      ],
      "stateMutability": "view",
      "type": "function"
    },
    {
      "inputs": [
        {
          "internalType": "uint256",
          "name": "",
          "type": "uint256"
        }
      ],
      "name": "pools",
      "outputs": [
        {
          "internalType": "uint256",
          "name": "participantCount",
          "type": "uint256"
        },
        {
          "internalType": "uint256",
          "name": "participantLimit",
          "type": "uint256"
        }
      ],
      "stateMutability": "view",
      "type": "function"
    },
    {
      "inputs": [
        {
          "internalType": "uint8",
          "name": "_state",
          "type": "uint8"
        }
      ],
      "name": "setLotteryState",
      "outputs": [],
      "stateMutability": "nonpayable",
      "type": "function"
    }
  ],
  "bytecode": "0x60a06040523480156200001157600080fd5b5060405162002344380380620023448339818101604052810190620000379190620000dc565b8073ffffffffffffffffffffffffffffffffffffffff1660808173ffffffffffffffffffffffffffffffffffffffff1681525050506200010e565b600080fd5b600073ffffffffffffffffffffffffffffffffffffffff82169050919050565b6000620000a48262000077565b9050919050565b620000b68162000097565b8114620000c257600080fd5b50565b600081519050620000d681620000ab565b92915050565b600060208284031215620000f557620000f462000072565b5b60006200010584828501620000c5565b91505092915050565b6080516122056200013f600039600081816103d30152818161072b0152818161086f015261099301526122056000f3fe608060405234801561001057600080fd5b506004361061009e5760003560e01c80638829bb29116100665780638829bb2914610145578063a42b7e0b14610161578063a9dcfd5314610184578063ac4afa38146101a2578063e303a92b146101d35761009e565b80630c3f6acf146100a35780632f9e2290146100c157806360a2da44146100f15780637365870b1461010d5780638259e6a014610129575b600080fd5b6100ab6101ef565b6040516100b89190611499565b60405180910390f35b6100db60048036038101906100d691906114ef565b610202565b6040516100e89190611570565b60405180910390f35b61010b6004803603810190610106919061158b565b610259565b005b610127600480360381019061012291906115f2565b6103ba565b005b610143600480360381019061013e91906115f2565b610712565b005b61015f600480360381019061015a9190611658565b610856565b005b610169610926565b60405161017b96959493929190611694565b60405180910390f35b61018c610950565b60405161019991906116f5565b60405180910390f35b6101bc60048036038101906101b791906115f2565b610956565b6040516101ca929190611710565b60405180910390f35b6101ed60048036038101906101e891906115f2565b61097a565b005b600060029054906101000a900460ff1681565b60008060096000858152602001908152602001600020905080600201600084815260200190815260200160002060009054906101000a900473ffffffffffffffffffffffffffffffffffffffff1691505092915050565b60008060019054906101000a900460ff1615905080801561028a5750600160008054906101000a900460ff1660ff16105b806102b7575061029930610f04565b1580156102b65750600160008054906101000a900460ff1660ff16145b5b6102f6576040517f08c379a00000000000000000000000000000000000000000000000000000000081526004016102ed906117bc565b60405180910390fd5b60016000806101000a81548160ff021916908360ff1602179055508015610333576001600060016101000a81548160ff0219169083151502179055505b84600160000181905550836001800181905550826001600201819055508160016005018190555080156103b35760008060016101000a81548160ff0219169083151502179055507f7f26b83ff96e1f2b6a682f133852f6798a09c465da95921460cefb384740249860016040516103aa9190611821565b60405180910390a15b5050505050565b3373ffffffffffffffffffffffffffffffffffffffff167f000000000000000000000000000000000000000000000000000000000000000073ffffffffffffffffffffffffffffffffffffffff1614610448576040517f08c379a000000000000000000000000000000000000000000000000000000000815260040161043f90611888565b60405180910390fd5b600180600181111561045d5761045c611422565b5b600060029054906101000a900460ff16600181111561047f5761047e611422565b5b146104bf576040517f08c379a00000000000000000000000000000000000000000000000000000000081526004016104b6906118f4565b60405180910390fd5b600060019050806005015481600401541061050f576040517f08c379a000000000000000000000000000000000000000000000000000000000815260040161050690611960565b60405180910390fd5b610517610f27565b600083111561063c576000600960008581526020019081526020016000209050600081600101541161057e576040517f08c379a0000000000000000000000000000000000000000000000000000000008152600401610575906119cc565b60405180910390fd5b80600101548160000154106105c8576040517f08c379a00000000000000000000000000000000000000000000000000000000081526004016105bf90611a38565b60405180910390fd5b8060000160008154809291906105dd90611a87565b9190505550328160020160008360000154815260200190815260200160002060006101000a81548173ffffffffffffffffffffffffffffffffffffffff021916908373ffffffffffffffffffffffffffffffffffffffff160217905550505b80600201548160030160008282546106549190611ad0565b9250508190555080600401600081548092919061067090611a87565b919050555060405180604001604052803273ffffffffffffffffffffffffffffffffffffffff168152602001848152508160060160008360040154815260200190815260200160002060008201518160000160006101000a81548173ffffffffffffffffffffffffffffffffffffffff021916908373ffffffffffffffffffffffffffffffffffffffff16021790555060208201518160010155905050505050565b3373ffffffffffffffffffffffffffffffffffffffff167f000000000000000000000000000000000000000000000000000000000000000073ffffffffffffffffffffffffffffffffffffffff16146107a0576040517f08c379a000000000000000000000000000000000000000000000000000000000815260040161079790611888565b60405180910390fd5b60018060018111156107b5576107b4611422565b5b600060029054906101000a900460ff1660018111156107d7576107d6611422565b5b14610817576040517f08c379a000000000000000000000000000000000000000000000000000000000815260040161080e906118f4565b60405180910390fd5b6008600081548092919061082a90611a87565b919050555060006009600060085481526020019081526020016000209050828160010181905550505050565b3373ffffffffffffffffffffffffffffffffffffffff167f000000000000000000000000000000000000000000000000000000000000000073ffffffffffffffffffffffffffffffffffffffff16146108e4576040517f08c379a00000000000000000000000000000000000000000000000000000000081526004016108db90611888565b60405180910390fd5b8060ff1660018111156108fa576108f9611422565b5b600060026101000a81548160ff0219169083600181111561091e5761091d611422565b5b021790555050565b60018060000154908060010154908060020154908060030154908060040154908060050154905086565b60085481565b60096020528060005260406000206000915090508060000154908060010154905082565b3373ffffffffffffffffffffffffffffffffffffffff167f000000000000000000000000000000000000000000000000000000000000000073ffffffffffffffffffffffffffffffffffffffff1614610a08576040517f08c379a00000000000000000000000000000000000000000000000000000000081526004016109ff90611888565b60405180910390fd5b6001806001811115610a1d57610a1c611422565b5b600060029054906101000a900460ff166001811115610a3f57610a3e611422565b5b14610a7f576040517f08c379a0000000000000000000000000000000000000000000000000000000008152600401610a76906118f4565b60405180910390fd5b60008060026101000a81548160ff02191690836001811115610aa457610aa3611422565b5b02179055506000610ab483610f7d565b9050610af56040518060400160405280600681526020017f77696e6e6572000000000000000000000000000000000000000000000000000081525082610fdc565b6000600160060160008381526020019081526020016000206040518060400160405290816000820160009054906101000a900473ffffffffffffffffffffffffffffffffffffffff1673ffffffffffffffffffffffffffffffffffffffff1673ffffffffffffffffffffffffffffffffffffffff1681526020016001820154815250509050600073dac17f958d2ee523a2206206994597c13d831ec773ffffffffffffffffffffffffffffffffffffffff166370a08231306040518263ffffffff1660e01b8152600401610bc99190611570565b60206040518083038186803b158015610be157600080fd5b505afa158015610bf5573d6000803e3d6000fd5b505050506040513d601f19601f82011682018060405250810190610c199190611b3b565b9050600082602001511115610ddc5760006009600084602001518152602001908152602001600020905060008160000154905060008167ffffffffffffffff811115610c6857610c67611b68565b5b604051908082528060200260200182016040528015610c965781602001602082028036833780820191505090505b5090508184610ca59190611bc6565b93506000600190505b828111610d9a57600084600201600083815260200190815260200160002060009054906101000a900473ffffffffffffffffffffffffffffffffffffffff1690508083600184610cfe9190611bf7565b81518110610d0f57610d0e611c2b565b5b602002602001019073ffffffffffffffffffffffffffffffffffffffff16908173ffffffffffffffffffffffffffffffffffffffff1681525050610d88818773dac17f958d2ee523a2206206994597c13d831ec773ffffffffffffffffffffffffffffffffffffffff166110789092919063ffffffff16565b5080610d9390611a87565b9050610cae565b507f1d2f8de748a4742a8161f6dd6388ea47967970218e5127f4ec5bab81766b48998185604051610dcc929190611d18565b60405180910390a1505050610efd565b600082600001519050610e24818373dac17f958d2ee523a2206206994597c13d831ec773ffffffffffffffffffffffffffffffffffffffff166110789092919063ffffffff16565b6000600167ffffffffffffffff811115610e4157610e40611b68565b5b604051908082528060200260200182016040528015610e6f5781602001602082028036833780820191505090505b5090508181600081518110610e8757610e86611c2b565b5b602002602001019073ffffffffffffffffffffffffffffffffffffffff16908173ffffffffffffffffffffffffffffffffffffffff16815250507f1d2f8de748a4742a8161f6dd6388ea47967970218e5127f4ec5bab81766b48998184604051610ef2929190611d18565b60405180910390a150505b5050505050565b6000808273ffffffffffffffffffffffffffffffffffffffff163b119050919050565b610f7b3230620f4240600160020154610f409190611d48565b73dac17f958d2ee523a2206206994597c13d831ec773ffffffffffffffffffffffffffffffffffffffff166110fe909392919063ffffffff16565b565b600080444260016003015485604051602001610f9c9493929190611dc3565b6040516020818303038152906040528051906020012060001c905060016004015481610fc89190611e11565b6001610fd49190611ad0565b915050919050565b6110748282604051602401610ff2929190611eca565b6040516020818303038152906040527fb60e72cc000000000000000000000000000000000000000000000000000000007bffffffffffffffffffffffffffffffffffffffffffffffffffffffff19166020820180517bffffffffffffffffffffffffffffffffffffffffffffffffffffffff8381831617835250505050611187565b5050565b6110f98363a9059cbb60e01b8484604051602401611097929190611efa565b604051602081830303815290604052907bffffffffffffffffffffffffffffffffffffffffffffffffffffffff19166020820180517bffffffffffffffffffffffffffffffffffffffffffffffffffffffff83818316178352505050506111b0565b505050565b611181846323b872dd60e01b85858560405160240161111f93929190611f23565b604051602081830303815290604052907bffffffffffffffffffffffffffffffffffffffffffffffffffffffff19166020820180517bffffffffffffffffffffffffffffffffffffffffffffffffffffffff83818316178352505050506111b0565b50505050565b60008151905060006a636f6e736f6c652e6c6f679050602083016000808483855afa5050505050565b6000611212826040518060400160405280602081526020017f5361666545524332303a206c6f772d6c6576656c2063616c6c206661696c65648152508573ffffffffffffffffffffffffffffffffffffffff166112779092919063ffffffff16565b905060008151111561127257808060200190518101906112329190611f92565b611271576040517f08c379a000000000000000000000000000000000000000000000000000000000815260040161126890612031565b60405180910390fd5b5b505050565b6060611286848460008561128f565b90509392505050565b6060824710156112d4576040517f08c379a00000000000000000000000000000000000000000000000000000000081526004016112cb906120c3565b60405180910390fd5b6000808673ffffffffffffffffffffffffffffffffffffffff1685876040516112fd919061212a565b60006040518083038185875af1925050503d806000811461133a576040519150601f19603f3d011682016040523d82523d6000602084013e61133f565b606091505b50915091506113508783838761135c565b92505050949350505050565b606083156113bf576000835114156113b75761137785610f04565b6113b6576040517f08c379a00000000000000000000000000000000000000000000000000000000081526004016113ad9061218d565b60405180910390fd5b5b8290506113ca565b6113c983836113d2565b5b949350505050565b6000825111156113e55781518083602001fd5b806040517f08c379a000000000000000000000000000000000000000000000000000000000815260040161141991906121ad565b60405180910390fd5b7f4e487b7100000000000000000000000000000000000000000000000000000000600052602160045260246000fd5b6002811061146257611461611422565b5b50565b600081905061147382611451565b919050565b600061148382611465565b9050919050565b61149381611478565b82525050565b60006020820190506114ae600083018461148a565b92915050565b600080fd5b6000819050919050565b6114cc816114b9565b81146114d757600080fd5b50565b6000813590506114e9816114c3565b92915050565b60008060408385031215611506576115056114b4565b5b6000611514858286016114da565b9250506020611525858286016114da565b9150509250929050565b600073ffffffffffffffffffffffffffffffffffffffff82169050919050565b600061155a8261152f565b9050919050565b61156a8161154f565b82525050565b60006020820190506115856000830184611561565b92915050565b600080600080608085870312156115a5576115a46114b4565b5b60006115b3878288016114da565b94505060206115c4878288016114da565b93505060406115d5878288016114da565b92505060606115e6878288016114da565b91505092959194509250565b600060208284031215611608576116076114b4565b5b6000611616848285016114da565b91505092915050565b600060ff82169050919050565b6116358161161f565b811461164057600080fd5b50565b6000813590506116528161162c565b92915050565b60006020828403121561166e5761166d6114b4565b5b600061167c84828501611643565b91505092915050565b61168e816114b9565b82525050565b600060c0820190506116a96000830189611685565b6116b66020830188611685565b6116c36040830187611685565b6116d06060830186611685565b6116dd6080830185611685565b6116ea60a0830184611685565b979650505050505050565b600060208201905061170a6000830184611685565b92915050565b60006040820190506117256000830185611685565b6117326020830184611685565b9392505050565b600082825260208201905092915050565b7f496e697469616c697a61626c653a20636f6e747261637420697320616c72656160008201527f647920696e697469616c697a6564000000000000000000000000000000000000602082015250565b60006117a6602e83611739565b91506117b18261174a565b604082019050919050565b600060208201905081810360008301526117d581611799565b9050919050565b6000819050919050565b6000819050919050565b600061180b611806611801846117dc565b6117e6565b61161f565b9050919050565b61181b816117f0565b82525050565b60006020820190506118366000830184611812565b92915050565b7f4f6e6c792050756d704d654261736520617574686f72697a6564000000000000600082015250565b6000611872601a83611739565b915061187d8261183c565b602082019050919050565b600060208201905081810360008301526118a181611865565b9050919050565b7f4e6f7420616c6c6f77656420696e207468697320737461746500000000000000600082015250565b60006118de601983611739565b91506118e9826118a8565b602082019050919050565b6000602082019050818103600083015261190d816118d1565b9050919050565b7f4c6f7474657279206c696d697420726561636865640000000000000000000000600082015250565b600061194a601583611739565b915061195582611914565b602082019050919050565b600060208201905081810360008301526119798161193d565b9050919050565b7f506f6f6c20646f65736e27742065786973740000000000000000000000000000600082015250565b60006119b6601283611739565b91506119c182611980565b602082019050919050565b600060208201905081810360008301526119e5816119a9565b9050919050565b7f506f6f6c206c696d697420726561636865640000000000000000000000000000600082015250565b6000611a22601283611739565b9150611a2d826119ec565b602082019050919050565b60006020820190508181036000830152611a5181611a15565b9050919050565b7f4e487b7100000000000000000000000000000000000000000000000000000000600052601160045260246000fd5b6000611a92826114b9565b91507fffffffffffffffffffffffffffffffffffffffffffffffffffffffffffffffff821415611ac557611ac4611a58565b5b600182019050919050565b6000611adb826114b9565b9150611ae6836114b9565b9250827fffffffffffffffffffffffffffffffffffffffffffffffffffffffffffffffff03821115611b1b57611b1a611a58565b5b828201905092915050565b600081519050611b35816114c3565b92915050565b600060208284031215611b5157611b506114b4565b5b6000611b5f84828501611b26565b91505092915050565b7f4e487b7100000000000000000000000000000000000000000000000000000000600052604160045260246000fd5b7f4e487b7100000000000000000000000000000000000000000000000000000000600052601260045260246000fd5b6000611bd1826114b9565b9150611bdc836114b9565b925082611bec57611beb611b97565b5b828204905092915050565b6000611c02826114b9565b9150611c0d836114b9565b925082821015611c2057611c1f611a58565b5b828203905092915050565b7f4e487b7100000000000000000000000000000000000000000000000000000000600052603260045260246000fd5b600081519050919050565b600082825260208201905092915050565b6000819050602082019050919050565b611c8f8161154f565b82525050565b6000611ca18383611c86565b60208301905092915050565b6000602082019050919050565b6000611cc582611c5a565b611ccf8185611c65565b9350611cda83611c76565b8060005b83811015611d0b578151611cf28882611c95565b9750611cfd83611cad565b925050600181019050611cde565b5085935050505092915050565b60006040820190508181036000830152611d328185611cba565b9050611d416020830184611685565b9392505050565b6000611d53826114b9565b9150611d5e836114b9565b9250817fffffffffffffffffffffffffffffffffffffffffffffffffffffffffffffffff0483118215151615611d9757611d96611a58565b5b828202905092915050565b6000819050919050565b611dbd611db8826114b9565b611da2565b82525050565b6000611dcf8287611dac565b602082019150611ddf8286611dac565b602082019150611def8285611dac565b602082019150611dff8284611dac565b60208201915081905095945050505050565b6000611e1c826114b9565b9150611e27836114b9565b925082611e3757611e36611b97565b5b828206905092915050565b600081519050919050565b60005b83811015611e6b578082015181840152602081019050611e50565b83811115611e7a576000848401525b50505050565b6000601f19601f8301169050919050565b6000611e9c82611e42565b611ea68185611739565b9350611eb6818560208601611e4d565b611ebf81611e80565b840191505092915050565b60006040820190508181036000830152611ee48185611e91565b9050611ef36020830184611685565b9392505050565b6000604082019050611f0f6000830185611561565b611f1c6020830184611685565b9392505050565b6000606082019050611f386000830186611561565b611f456020830185611561565b611f526040830184611685565b949350505050565b60008115159050919050565b611f6f81611f5a565b8114611f7a57600080fd5b50565b600081519050611f8c81611f66565b92915050565b600060208284031215611fa857611fa76114b4565b5b6000611fb684828501611f7d565b91505092915050565b7f5361666545524332303a204552433230206f7065726174696f6e20646964206e60008201527f6f74207375636365656400000000000000000000000000000000000000000000602082015250565b600061201b602a83611739565b915061202682611fbf565b604082019050919050565b6000602082019050818103600083015261204a8161200e565b9050919050565b7f416464726573733a20696e73756666696369656e742062616c616e636520666f60008201527f722063616c6c0000000000000000000000000000000000000000000000000000602082015250565b60006120ad602683611739565b91506120b882612051565b604082019050919050565b600060208201905081810360008301526120dc816120a0565b9050919050565b600081519050919050565b600081905092915050565b6000612104826120e3565b61210e81856120ee565b935061211e818560208601611e4d565b80840191505092915050565b600061213682846120f9565b915081905092915050565b7f416464726573733a2063616c6c20746f206e6f6e2d636f6e7472616374000000600082015250565b6000612177601d83611739565b915061218282612141565b602082019050919050565b600060208201905081810360008301526121a68161216a565b9050919050565b600060208201905081810360008301526121c78184611e91565b90509291505056fea2646970667358221220380bd72bb11161d39f883ac56d989aceeb414023fa27c9bab98cf0c80192526364736f6c63430008090033",
  "linkReferences": {},
  "deployedLinkReferences": {}
}