{
  "_format": "hh-sol-artifact-1",
  "contractName": "PumpMeBase",
  "sourceName": "contracts/PumpMeBase.sol",
  "abi": [
    {
      "anonymous": false,
      "inputs": [
        {
          "indexed": false,
          "internalType": "uint256",
          "name": "_lotteryId",
          "type": "uint256"
        },
        {
          "indexed": false,
          "internalType": "address",
          "name": "_lotteryAddress",
          "type": "address"
        }
      ],
      "name": "LotteryAdded",
      "type": "event"
    },
    {
      "anonymous": false,
      "inputs": [
        {
          "indexed": true,
          "internalType": "address",
          "name": "previousOwner",
          "type": "address"
        },
        {
          "indexed": true,
          "internalType": "address",
          "name": "newOwner",
          "type": "address"
        }
      ],
      "name": "OwnershipTransferred",
      "type": "event"
    },
    {
      "inputs": [
        {
          "internalType": "uint256",
          "name": "_idLottery",
          "type": "uint256"
        },
        {
          "internalType": "uint256",
          "name": "_poolId",
          "type": "uint256"
        }
      ],
      "name": "bet",
      "outputs": [],
      "stateMutability": "nonpayable",
      "type": "function"
    },
    {
      "inputs": [
        {
          "internalType": "uint256",
          "name": "_idLottery",
          "type": "uint256"
        },
        {
          "internalType": "uint256",
          "name": "_participantLimit",
          "type": "uint256"
        }
      ],
      "name": "createPool",
      "outputs": [],
      "stateMutability": "nonpayable",
      "type": "function"
    },
    {
      "inputs": [],
      "name": "currentLottery",
      "outputs": [
        {
          "internalType": "uint256",
          "name": "",
          "type": "uint256"
        }
      ],
      "stateMutability": "view",
      "type": "function"
    },
    {
      "inputs": [
        {
          "internalType": "uint256",
          "name": "_idLottery",
          "type": "uint256"
        }
      ],
      "name": "deleteAddressLottery",
      "outputs": [],
      "stateMutability": "nonpayable",
      "type": "function"
    },
    {
      "inputs": [
        {
          "internalType": "address",
          "name": "_lotteryAddress",
          "type": "address"
        },
        {
          "internalType": "uint256",
          "name": "_nonce",
          "type": "uint256"
        }
      ],
      "name": "drawLottery",
      "outputs": [],
      "stateMutability": "nonpayable",
      "type": "function"
    },
    {
      "inputs": [
        {
          "internalType": "uint256",
          "name": "_idLottery",
          "type": "uint256"
        }
      ],
      "name": "getAddressLottery",
      "outputs": [
        {
          "internalType": "address",
          "name": "",
          "type": "address"
        }
      ],
      "stateMutability": "view",
      "type": "function"
    },
    {
      "inputs": [],
      "name": "lotteryFactory",
      "outputs": [
        {
          "internalType": "contract LotteryFactory",
          "name": "",
          "type": "address"
        }
      ],
      "stateMutability": "view",
      "type": "function"
    },
    {
      "inputs": [
        {
          "internalType": "uint256",
          "name": "_createdAt",
          "type": "uint256"
        },
        {
          "internalType": "uint256",
          "name": "_endingAt",
          "type": "uint256"
        },
        {
          "internalType": "uint256",
          "name": "_deposit",
          "type": "uint256"
        },
        {
          "internalType": "uint256",
          "name": "_participantLimit",
          "type": "uint256"
        }
      ],
      "name": "newLottery",
      "outputs": [],
      "stateMutability": "nonpayable",
      "type": "function"
    },
    {
      "inputs": [],
      "name": "owner",
      "outputs": [
        {
          "internalType": "address",
          "name": "",
          "type": "address"
        }
      ],
      "stateMutability": "view",
      "type": "function"
    },
    {
      "inputs": [],
      "name": "renounceOwnership",
      "outputs": [],
      "stateMutability": "nonpayable",
      "type": "function"
    },
    {
      "inputs": [
        {
          "internalType": "uint256",
          "name": "_idLottery",
          "type": "uint256"
        },
        {
          "internalType": "address",
          "name": "_value",
          "type": "address"
        }
      ],
      "name": "setAddressLottery",
      "outputs": [],
      "stateMutability": "nonpayable",
      "type": "function"
    },
    {
      "inputs": [
        {
          "internalType": "address",
          "name": "_lotteryFactory",
          "type": "address"
        }
      ],
      "name": "setLotteryFactory",
      "outputs": [],
      "stateMutability": "nonpayable",
      "type": "function"
    },
    {
      "inputs": [
        {
          "internalType": "uint256[]",
          "name": "_possiblePoolLength",
          "type": "uint256[]"
        }
      ],
      "name": "setPossiblePoolLength",
      "outputs": [],
      "stateMutability": "nonpayable",
      "type": "function"
    },
    {
      "inputs": [
        {
          "internalType": "address",
          "name": "_lotteryAddress",
          "type": "address"
        },
        {
          "internalType": "uint8",
          "name": "_state",
          "type": "uint8"
        }
      ],
      "name": "setState",
      "outputs": [],
      "stateMutability": "nonpayable",
      "type": "function"
    },
    {
      "inputs": [
        {
          "internalType": "address",
          "name": "newOwner",
          "type": "address"
        }
      ],
      "name": "transferOwnership",
      "outputs": [],
      "stateMutability": "nonpayable",
      "type": "function"
    }
  ],
  "bytecode": "0x60806040526040518060600160405280600a61ffff168152602001606461ffff1681526020016103e861ffff1681525060039060036200004192919062000142565b503480156200004f57600080fd5b5062000070620000646200007660201b60201c565b6200007e60201b60201c565b620001b9565b600033905090565b60008060009054906101000a900473ffffffffffffffffffffffffffffffffffffffff169050816000806101000a81548173ffffffffffffffffffffffffffffffffffffffff021916908373ffffffffffffffffffffffffffffffffffffffff1602179055508173ffffffffffffffffffffffffffffffffffffffff168173ffffffffffffffffffffffffffffffffffffffff167f8be0079c531659141344cd1fd0a4f28419497f9722a3daafe3b4186f6b6457e060405160405180910390a35050565b82805482825590600052602060002090810192821562000187579160200282015b8281111562000186578251829061ffff1690559160200191906001019062000163565b5b5090506200019691906200019a565b5090565b5b80821115620001b55760008160009055506001016200019b565b5090565b61130180620001c96000396000f3fe608060405234801561001057600080fd5b50600436106100f55760003560e01c80636ffcc719116100975780638da5cb5b116100665780638da5cb5b146102205780639b9dc79a1461023e578063df4b3a241461026e578063f2fde38b1461028a576100f5565b80636ffcc719146101c2578063715018a6146101de57806374a110c2146101e85780638087d3cb14610204576100f5565b8063306d6ab6116100d3578063306d6ab614610152578063582c4ebf1461016e5780635b2625ac1461018a5780636b63c8c8146101a6576100f5565b806324c9036d146100fa57806327737d58146101185780632bd56b0614610134575b600080fd5b6101026102a6565b60405161010f9190610bca565b60405180910390f35b610132600480360381019061012d9190610c66565b6102cc565b005b61013c610397565b6040516101499190610cbf565b60405180910390f35b61016c60048036038101906101679190610d06565b61039d565b005b61018860048036038101906101839190610d46565b6103fb565b005b6101a4600480360381019061019f9190610dad565b610505565b005b6101c060048036038101906101bb9190610dda565b610546565b005b6101dc60048036038101906101d79190610e1a565b6105bd565b005b6101e6610665565b005b61020260048036038101906101fd9190610e1a565b610679565b005b61021e60048036038101906102199190610e5a565b6107d4565b005b610228610820565b6040516102359190610e96565b60405180910390f35b61025860048036038101906102539190610dad565b610849565b6040516102659190610e96565b60405180910390f35b61028860048036038101906102839190610f16565b610886565b005b6102a4600480360381019061029f9190610e5a565b6108a4565b005b600160009054906101000a900473ffffffffffffffffffffffffffffffffffffffff1681565b6102d4610928565b60008160ff1614806102e9575060018160ff16145b610328576040517f08c379a000000000000000000000000000000000000000000000000000000000815260040161031f90610fc0565b60405180910390fd5b8173ffffffffffffffffffffffffffffffffffffffff16638829bb29826040518263ffffffff1660e01b81526004016103619190610fef565b600060405180830381600087803b15801561037b57600080fd5b505af115801561038f573d6000803e3d6000fd5b505050505050565b60025481565b6103a5610928565b806004600084815260200190815260200160002060006101000a81548173ffffffffffffffffffffffffffffffffffffffff021916908373ffffffffffffffffffffffffffffffffffffffff1602179055505050565b610403610928565b6000600160009054906101000a900473ffffffffffffffffffffffffffffffffffffffff1673ffffffffffffffffffffffffffffffffffffffff166375f22a57868686866040518563ffffffff1660e01b8152600401610466949392919061100a565b602060405180830381600087803b15801561048057600080fd5b505af1158015610494573d6000803e3d6000fd5b505050506040513d601f19601f820116820180604052508101906104b89190611064565b90506104c3816109a6565b7feca2846ba09e64eb4861458ebd70b3164cf73d33f323e7ef26fe328bd9f54b17600254826040516104f6929190611091565b60405180910390a15050505050565b61050d610928565b6004600082815260200190815260200160002060006101000a81549073ffffffffffffffffffffffffffffffffffffffff021916905550565b61054e610928565b8173ffffffffffffffffffffffffffffffffffffffff1663e303a92b826040518263ffffffff1660e01b81526004016105879190610cbf565b600060405180830381600087803b1580156105a157600080fd5b505af11580156105b5573d6000803e3d6000fd5b505050505050565b60006004600084815260200190815260200160002060009054906101000a900473ffffffffffffffffffffffffffffffffffffffff1690508073ffffffffffffffffffffffffffffffffffffffff16637365870b836040518263ffffffff1660e01b815260040161062e9190610cbf565b600060405180830381600087803b15801561064857600080fd5b505af115801561065c573d6000803e3d6000fd5b50505050505050565b61066d610928565b6106776000610a15565b565b600360008154811061068e5761068d6110ba565b5b90600052602060002001548114806106c4575060036001815481106106b6576106b56110ba565b5b906000526020600020015481145b806106ed575060036002815481106106df576106de6110ba565b5b906000526020600020015481145b61072c576040517f08c379a000000000000000000000000000000000000000000000000000000000815260040161072390611135565b60405180910390fd5b60006004600084815260200190815260200160002060009054906101000a900473ffffffffffffffffffffffffffffffffffffffff1690508073ffffffffffffffffffffffffffffffffffffffff16638259e6a0836040518263ffffffff1660e01b815260040161079d9190610cbf565b600060405180830381600087803b1580156107b757600080fd5b505af11580156107cb573d6000803e3d6000fd5b50505050505050565b6107dc610928565b80600160006101000a81548173ffffffffffffffffffffffffffffffffffffffff021916908373ffffffffffffffffffffffffffffffffffffffff16021790555050565b60008060009054906101000a900473ffffffffffffffffffffffffffffffffffffffff16905090565b60006004600083815260200190815260200160002060009054906101000a900473ffffffffffffffffffffffffffffffffffffffff169050919050565b61088e610928565b81816003919061089f929190610ae1565b505050565b6108ac610928565b600073ffffffffffffffffffffffffffffffffffffffff168173ffffffffffffffffffffffffffffffffffffffff16141561091c576040517f08c379a0000000000000000000000000000000000000000000000000000000008152600401610913906111c7565b60405180910390fd5b61092581610a15565b50565b610930610ad9565b73ffffffffffffffffffffffffffffffffffffffff1661094e610820565b73ffffffffffffffffffffffffffffffffffffffff16146109a4576040517f08c379a000000000000000000000000000000000000000000000000000000000815260040161099b90611233565b60405180910390fd5b565b600260008154809291906109b990611282565b91905055508060046000600254815260200190815260200160002060006101000a81548173ffffffffffffffffffffffffffffffffffffffff021916908373ffffffffffffffffffffffffffffffffffffffff16021790555050565b60008060009054906101000a900473ffffffffffffffffffffffffffffffffffffffff169050816000806101000a81548173ffffffffffffffffffffffffffffffffffffffff021916908373ffffffffffffffffffffffffffffffffffffffff1602179055508173ffffffffffffffffffffffffffffffffffffffff168173ffffffffffffffffffffffffffffffffffffffff167f8be0079c531659141344cd1fd0a4f28419497f9722a3daafe3b4186f6b6457e060405160405180910390a35050565b600033905090565b828054828255906000526020600020908101928215610b1d579160200282015b82811115610b1c578235825591602001919060010190610b01565b5b509050610b2a9190610b2e565b5090565b5b80821115610b47576000816000905550600101610b2f565b5090565b600073ffffffffffffffffffffffffffffffffffffffff82169050919050565b6000819050919050565b6000610b90610b8b610b8684610b4b565b610b6b565b610b4b565b9050919050565b6000610ba282610b75565b9050919050565b6000610bb482610b97565b9050919050565b610bc481610ba9565b82525050565b6000602082019050610bdf6000830184610bbb565b92915050565b600080fd5b600080fd5b6000610bfa82610b4b565b9050919050565b610c0a81610bef565b8114610c1557600080fd5b50565b600081359050610c2781610c01565b92915050565b600060ff82169050919050565b610c4381610c2d565b8114610c4e57600080fd5b50565b600081359050610c6081610c3a565b92915050565b60008060408385031215610c7d57610c7c610be5565b5b6000610c8b85828601610c18565b9250506020610c9c85828601610c51565b9150509250929050565b6000819050919050565b610cb981610ca6565b82525050565b6000602082019050610cd46000830184610cb0565b92915050565b610ce381610ca6565b8114610cee57600080fd5b50565b600081359050610d0081610cda565b92915050565b60008060408385031215610d1d57610d1c610be5565b5b6000610d2b85828601610cf1565b9250506020610d3c85828601610c18565b9150509250929050565b60008060008060808587031215610d6057610d5f610be5565b5b6000610d6e87828801610cf1565b9450506020610d7f87828801610cf1565b9350506040610d9087828801610cf1565b9250506060610da187828801610cf1565b91505092959194509250565b600060208284031215610dc357610dc2610be5565b5b6000610dd184828501610cf1565b91505092915050565b60008060408385031215610df157610df0610be5565b5b6000610dff85828601610c18565b9250506020610e1085828601610cf1565b9150509250929050565b60008060408385031215610e3157610e30610be5565b5b6000610e3f85828601610cf1565b9250506020610e5085828601610cf1565b9150509250929050565b600060208284031215610e7057610e6f610be5565b5b6000610e7e84828501610c18565b91505092915050565b610e9081610bef565b82525050565b6000602082019050610eab6000830184610e87565b92915050565b600080fd5b600080fd5b600080fd5b60008083601f840112610ed657610ed5610eb1565b5b8235905067ffffffffffffffff811115610ef357610ef2610eb6565b5b602083019150836020820283011115610f0f57610f0e610ebb565b5b9250929050565b60008060208385031215610f2d57610f2c610be5565b5b600083013567ffffffffffffffff811115610f4b57610f4a610bea565b5b610f5785828601610ec0565b92509250509250929050565b600082825260208201905092915050565b7f57726f6e67207374617465000000000000000000000000000000000000000000600082015250565b6000610faa600b83610f63565b9150610fb582610f74565b602082019050919050565b60006020820190508181036000830152610fd981610f9d565b9050919050565b610fe981610c2d565b82525050565b60006020820190506110046000830184610fe0565b92915050565b600060808201905061101f6000830187610cb0565b61102c6020830186610cb0565b6110396040830185610cb0565b6110466060830184610cb0565b95945050505050565b60008151905061105e81610c01565b92915050565b60006020828403121561107a57611079610be5565b5b60006110888482850161104f565b91505092915050565b60006040820190506110a66000830185610cb0565b6110b36020830184610e87565b9392505050565b7f4e487b7100000000000000000000000000000000000000000000000000000000600052603260045260246000fd5b7f57726f6e67204c696d6974000000000000000000000000000000000000000000600082015250565b600061111f600b83610f63565b915061112a826110e9565b602082019050919050565b6000602082019050818103600083015261114e81611112565b9050919050565b7f4f776e61626c653a206e6577206f776e657220697320746865207a65726f206160008201527f6464726573730000000000000000000000000000000000000000000000000000602082015250565b60006111b1602683610f63565b91506111bc82611155565b604082019050919050565b600060208201905081810360008301526111e0816111a4565b9050919050565b7f4f776e61626c653a2063616c6c6572206973206e6f7420746865206f776e6572600082015250565b600061121d602083610f63565b9150611228826111e7565b602082019050919050565b6000602082019050818103600083015261124c81611210565b9050919050565b7f4e487b7100000000000000000000000000000000000000000000000000000000600052601160045260246000fd5b600061128d82610ca6565b91507fffffffffffffffffffffffffffffffffffffffffffffffffffffffffffffffff8214156112c0576112bf611253565b5b60018201905091905056fea2646970667358221220f74b8172d1466649d721199f26445e7c7fa29236166da88654a4c7bf4a34d5d064736f6c63430008090033",
  "linkReferences": {},
  "deployedLinkReferences": {}
}