{
  "_format": "hh-sol-artifact-1",
  "contractName": "LotteryFactory",
  "sourceName": "contracts/LotteryFactory.sol",
  "abi": [
    {
      "inputs": [
        {
          "internalType": "address",
          "name": "_pumpMeBase",
          "type": "address"
        },
        {
          "internalType": "address",
          "name": "_lottery",
          "type": "address"
        }
      ],
      "stateMutability": "nonpayable",
      "type": "constructor"
    },
    {
      "anonymous": false,
      "inputs": [
        {
          "indexed": false,
          "internalType": "uint256",
          "name": "createdAt",
          "type": "uint256"
        },
        {
          "indexed": false,
          "internalType": "uint256",
          "name": "endingAt",
          "type": "uint256"
        },
        {
          "indexed": false,
          "internalType": "uint256",
          "name": "deposit",
          "type": "uint256"
        },
        {
          "indexed": false,
          "internalType": "uint256",
          "name": "participantLimit",
          "type": "uint256"
        }
      ],
      "name": "LotteryCreated",
      "type": "event"
    },
    {
      "inputs": [
        {
          "internalType": "uint256",
          "name": "_createdAt",
          "type": "uint256"
        },
        {
          "internalType": "uint256",
          "name": "_endingAt",
          "type": "uint256"
        },
        {
          "internalType": "uint256",
          "name": "_deposit",
          "type": "uint256"
        },
        {
          "internalType": "uint256",
          "name": "_participantLimit",
          "type": "uint256"
        }
      ],
      "name": "createLottery",
      "outputs": [
        {
          "internalType": "address",
          "name": "",
          "type": "address"
        }
      ],
      "stateMutability": "nonpayable",
      "type": "function"
    },
    {
      "inputs": [],
      "name": "lottery",
      "outputs": [
        {
          "internalType": "address",
          "name": "",
          "type": "address"
        }
      ],
      "stateMutability": "view",
      "type": "function"
    },
    {
      "inputs": [],
      "name": "pumpMeBase",
      "outputs": [
        {
          "internalType": "address",
          "name": "",
          "type": "address"
        }
      ],
      "stateMutability": "view",
      "type": "function"
    }
  ],
  "bytecode": "0x60c060405234801561001057600080fd5b5060405161071338038061071383398181016040528101906100329190610104565b8173ffffffffffffffffffffffffffffffffffffffff1660a08173ffffffffffffffffffffffffffffffffffffffff16815250508073ffffffffffffffffffffffffffffffffffffffff1660808173ffffffffffffffffffffffffffffffffffffffff16815250505050610144565b600080fd5b600073ffffffffffffffffffffffffffffffffffffffff82169050919050565b60006100d1826100a6565b9050919050565b6100e1816100c6565b81146100ec57600080fd5b50565b6000815190506100fe816100d8565b92915050565b6000806040838503121561011b5761011a6100a1565b5b6000610129858286016100ef565b925050602061013a858286016100ef565b9150509250929050565b60805160a05161059d6101766000396000818160cd015261022b015260008181610149015261024f015261059d6000f3fe608060405234801561001057600080fd5b50600436106100415760003560e01c806375f22a571461004657806395bdf55914610076578063ba13a57214610094575b600080fd5b610060600480360381019061005b9190610367565b6100b2565b60405161006d919061040f565b60405180910390f35b61007e610229565b60405161008b919061040f565b60405180910390f35b61009c61024d565b6040516100a9919061040f565b60405180910390f35b60003373ffffffffffffffffffffffffffffffffffffffff167f000000000000000000000000000000000000000000000000000000000000000073ffffffffffffffffffffffffffffffffffffffff1614610142576040517f08c379a000000000000000000000000000000000000000000000000000000000815260040161013990610487565b60405180910390fd5b600061016d7f0000000000000000000000000000000000000000000000000000000000000000610271565b90508073ffffffffffffffffffffffffffffffffffffffff166360a2da44878787876040518563ffffffff1660e01b81526004016101ae94939291906104b6565b600060405180830381600087803b1580156101c857600080fd5b505af11580156101dc573d6000803e3d6000fd5b505050507f68b3cc7239912b7f66b9e2f9d93955382d1082297c9e6347beb37217f081650e8686868660405161021594939291906104b6565b60405180910390a180915050949350505050565b7f000000000000000000000000000000000000000000000000000000000000000081565b7f000000000000000000000000000000000000000000000000000000000000000081565b6000763d602d80600a3d3981f3363d3d373d3d3d363d730000008260601b60e81c176000526e5af43d82803e903d91602b57fd5bf38260781b17602052603760096000f09050600073ffffffffffffffffffffffffffffffffffffffff168173ffffffffffffffffffffffffffffffffffffffff161415610327576040517f08c379a000000000000000000000000000000000000000000000000000000000815260040161031e90610547565b60405180910390fd5b919050565b600080fd5b6000819050919050565b61034481610331565b811461034f57600080fd5b50565b6000813590506103618161033b565b92915050565b600080600080608085870312156103815761038061032c565b5b600061038f87828801610352565b94505060206103a087828801610352565b93505060406103b187828801610352565b92505060606103c287828801610352565b91505092959194509250565b600073ffffffffffffffffffffffffffffffffffffffff82169050919050565b60006103f9826103ce565b9050919050565b610409816103ee565b82525050565b60006020820190506104246000830184610400565b92915050565b600082825260208201905092915050565b7f4f6e6c792053686f7020617574686f72697a6564000000000000000000000000600082015250565b600061047160148361042a565b915061047c8261043b565b602082019050919050565b600060208201905081810360008301526104a081610464565b9050919050565b6104b081610331565b82525050565b60006080820190506104cb60008301876104a7565b6104d860208301866104a7565b6104e560408301856104a7565b6104f260608301846104a7565b95945050505050565b7f455243313136373a20637265617465206661696c656400000000000000000000600082015250565b600061053160168361042a565b915061053c826104fb565b602082019050919050565b6000602082019050818103600083015261056081610524565b905091905056fea2646970667358221220ac3e07e2beb605c9b7bff1d830819ae09df647f7c2073b19ea72c628b5e0ab6164736f6c63430008090033",
  "linkReferences": {},
  "deployedLinkReferences": {}
}